:100000000C94A8030C94EF030C94EF030C94EF03EF
:100010000C94EF030C94EF030C94EF030C94EF0398
:100020000C94EF030C94EF030C94BF290C94B626A8
:100030000C94BC2A0C94EF030C94EF030C94EF0384
:100040000C94EF030C94EF030C94EF030C94EF0368
:100050000C94EF030C94982A0C94EF030C94EF0388
:100060000C94EF030C94EF030C94EF030C94EF0348
:100070000C94EF030C94EF030C94EF030C94EF0338
:100080000C94EF030C94EF030C94EF030C94EF0328
:100090000C94EF030C94EF030C94EF030C94EF0318
:1000A0000C94EF030C94EF030C94EF0306016AFF2A
:1000B000FFFF0000000005016AFFFFFF00000000D5
:1000C00004016AFFFFFF0000000000016AFFFFFF5C
:1000D0000000000001016AFFFFFF000000000201B4
:1000E0006AFFFFFF0000000003016AFFFFFF00003E
:1000F0000000000000000000000000000000000000
:1001000000000000000000000000000000000000EF
:100110000000000000007E0F00D4FFFFFFC70000BA
:10012000007800000000000000002A2B28000000DA
:100130000000000000000000000000000029000096
:1001400000002C1E3420212224342627252E362D73
:100150003738271E1F202122232425263333362E0D
:1001600037381F0405060708090A0B0C0D0E0F107F
:100170001112131415161718191A1B1C1D2F3130C4
:10018000232D350405060708090A0B0C0D0E0F1068
:100190001112131415161718191A1B1C1D2F3130A4
:1001A000354CE800DE00D400CA00C000B600AC0048
:1001B00000001E0F0500047F3F1F643214643214D8
:1001C000783C1E1E140A0500010101010101010114
:1001D00001020202020202020202030303030303FA
:1001E00003030404040404040405050505050606C8
:1001F0000606060707070707080808080909090986
:100200000A0A0A0B0B0B0C0C0C0D0D0D0E0E0E0F2B
:100210000F0F1010111111121213131414151516BB
:10022000161717181819191A1A1B1B1C1D1D1E1E2C
:100230001F2020212222232424252626272829297D
:100240002A2B2C2D2D2E2F303132323334353637A8
:1002500038393A3B3C3D3E3F4041424344454647A6
:1002600048494A4C4D4E4F50515354555658595A7F
:100270005B5D5E5F616264656668696B6C6D6F7023
:1002800072737577787A7B7D7E8082838587888A92
:100290008C8E8F91939596989A9C9EA0A2A3A5A7C9
:1002A000A9ABADAFB1B3B5B7BABCBEC0C2C4C6C9C5
:1002B000CBCDCFD1D4D6D8DBDDDFE2E4E7E9EBEE7E
:1002C000F0F3F5F8FAFDFFFFAA7F5540222325261B
:1002D00028292A2C2D2F3032333536383A3B3D3EF3
:1002E0004042434547494A4C4E5051535557595A3D
:1002F0005C5E6062646668696B6D6F717375777957
:100300007B7D7F81838587898A8C8E909294969855
:100310009A9C9E9FA1A3A5A7A8AAACAEAFB1B3B467
:10032000B6B8B9BBBCBEBFC1C2C3C5C6C7C9CACBBC
:10033000CCCDCED0D1D2D2D3D4D5D6D7D7D8D9D987
:10034000DADADBDBDBDCDCDCDCDCDDDDDDDDDCDCF0
:10035000DCDCDCDBDBDBDADAD9D9D8D7D7D6D5D40D
:10036000D3D2D2D1D0CECDCCCBCAC9C7C6C5C3C2D9
:10037000C1BFBEBCBBB9B8B6B4B3B1AFAEACAAA82E
:10038000A7A5A3A19F9E9C9A98969492908E8C8AE2
:1003900089878583817F7D7B79777573716F6D6BBD
:1003A0006968666462605E5C5A5957555351504E95
:1003B0004C4A4947454342403E3D3B3A3836353347
:1003C00032302F2D2C2A2928262523220000000038
:1003D000000000002C002C000000000000000000C5
:1003E0002C002C0000000000000000002C002C005D
:1003F00000000000000000002C002C0001000100A3
:1004000001000100010001000100010001000100E4
:1004100001000100010001000100010001000100D4
:1004200001000100010001000100010001000100C4
:1004300001000100010001000100010001000100B4
:1004400001000100010001000100010001000100A4
:100450000100010001000100010001000100010094
:100460000100010001000100010001000100010084
:100470000100010001000100010001000100010074
:100480000100010001000100010001000100010064
:100490000100010001000100010001000100010054
:1004A0000100010001000100010001000100010044
:1004B0000100010001000100010001000100010034
:1004C0000100010001000100010001000100010024
:1004D0000100010001000100010001000100010014
:1004E0000100010001000100010001000100010004
:1004F00001000100010001000100010001000100F4
:1005000001000100010001000100010001000100E3
:1005100001000100010001000100010001000100D3
:1005200001000100010001000100010001000100C3
:1005300001000100010001000100010001000100B3
:100540000100010001000100010001000660FF0937
:1005500061A1010962150026FF009520750881023E
:100560000963150026FF00952075089102C005015A
:100570000906A1018501050719E029E715002501F4
:10058000950875018102950175088101050719001B
:1005900029FF150026FF009506750881000508193A
:1005A000012905950575019102950175039101C019
:1005B00005010902A10185020901A100050919012E
:1005C00029081500250195087501810205010930EA
:1005D00009311581257F9502750881060938158135
:1005E000257F950175088106050C0A3802158125BD
:1005F0007F950175088106C0C005010980A10185AC
:100600000319012AB700150126B70095017510815D
:1006100000C0050C0901A101850419012AA00215D9
:100620000126A002950175108100C00501090EA1E7
:10063000018508050D0921A100050909019501752C
:1006400001150025018102050109379501750F5536
:100650000F651436F0F146100E16F0F126100E81DB
:1006600006C0C00902A600040100A0FA09040000A7
:10067000010301010009211101000122F500070514
:100680008303200001090401000203000000092186
:100690001101000122220007058103200001070546
:1006A0000203200001080B020201010000090402FC
:1006B00000000101000009240100010900010309F3
:1006C00004030002010300000724010001410006A9
:1006D000240201010006240202020009240301038E
:1006E00001020100092403020401010100090505BA
:1006F00002400005000005250101010905840240B2
:1007000000050000052501010312010002000000A0
:1007100008545701C40800010200011A034300589D
:100720000054002000310032004500340020004415
:100730000026004D00000012034300580054002022
:10074000004C006100620073000000040309040013
:1007500011241FBECFEFDAE0DEBFCDBF04B603FE2B
:1007600027C08091530490915404A0915504B091F6
:1007700056048730904BA740B04BD1F410925304ED
:1007800010925404109255041092560414BE84B76B
:10079000877F84BF0FB6F894A89580916000886128
:1007A00080936000109260000FBEE0E0F8E30995CE
:1007B00024E0A0ECB1E001C01D92A335B207E1F73F
:1007C00011E0A0E0B1E0ECEBF9E602C005900D927B
:1007D000A03CB107D9F70E94E32A0C94B8340C94DA
:1007E0000000AF92BF92CF92DF92EF92FF920F93F1
:1007F0001F93CF93DF937C01FB01EC019EE4C92E94
:1008000094E0D92E10E000E02AE0A22EB12C98014D
:100810002F5F3F4FCE01B5010E943C33805DD60172
:100820008D936D012A97C0F480914E048D32B9F0FA
:100830003097B9F0E114F10461F0BAE0EB16F1047D
:1008400044F4225B3B4F80E3F901808398012E5FE3
:100850003F4FF0E0E0E005C08901EB01D8CFE1E0D7
:10086000F0E0D901A25BBB4F1C92215031093595B4
:100870002795EF01C25BDB4FBD012E173F076CF4DC
:100880008EE494E0DF91CF911F910F91FF90EF9054
:10089000DF90CF90BF90AF9008958991DB019E913A
:1008A000BD01AE0141505109DA019C93DB018C93EB
:1008B0003196E3CFCF92DF92EF92FF920F931F9387
:1008C000CF93DF9300D00F92CDB7DEB77C01162F08
:1008D000D42EC22E809181038430B9F5E091760345
:1008E000F0917703309709F440C0C701019763E0A6
:1008F00070E00E943C33CB01880F991F860F971F31
:1009000019834A83CB824E2D481B9E012F5F3F4F98
:10091000BC018CE593E00995E0917A03F0917B03AB
:10092000309739F00C2D2D2D412FB7018CE593E038
:1009300009950F900F900F90DF91CF911F910F911C
:10094000FF90EF90DF90CF90089582E0E816F104D9
:1009500009F45AC083E0E816F104A9F081E0E81632
:10096000F10409F484C0F12CE12CE0917803F091BA
:100970007903309789F20C2D2D2D412FB7018CE58D
:1009800093E00995C9CF862F807F803A11F188F4D2
:100990008038D1F0E0916003F0916103803929F74C
:1009A000309719F3123F49F12C2D4D2D612F6F70A7
:1009B00027C0803E99F0803FB1F0E0915E03F09156
:1009C0005F03803B91F6ECCFE0916203F09163030B
:1009D000E7CFE0916403F0916503E2CFE091660315
:1009E000F0916703DDCF623F09F0BFCFE09168036C
:1009F000F0916903309709F4B8CF2C2D4D2D62EF9B
:100A00008CE593E0099588CF862F807F803DB9F0F3
:100A1000803FD1F0E0916A03F0916B03803C09F0D4
:100A2000A4CF309709F4A1CF812F8D7F4D2D612F59
:100A30006F70813FC9F08CE593E009956DCFE0912F
:100A40006C03F0916D03EDCFE0916E03F0916F03B5
:100A5000633F39F0613F09F088CFE0917003F09176
:100A60007103309709F481CF4D2D612FE4CFE091D0
:100A70007203F0917303683F38F4663F09F075CF55
:100A8000E0917403F0917503309709F46ECF612FF4
:100A90008CE593E0099540CFE8EDF0E080818E7F12
:100AA00080831092E2001092DA001092E100A0EE32
:100AB000B0E08C9181608C9380818F77808319BCAA
:100AC000A7EDB0E08C918E7F8C9380818F7E8083A8
:100AD0001092450308952091E4003091E50095E6D9
:100AE000A9012091EC00822F817020FF06C0809127
:100AF000E80080FF06C080E008952091E80022FD14
:100B00001AC080914D04882389F0853089F0809146
:100B1000EB0085FD0FC02091E4003091E500421705
:100B20005307F9F29150E1F684E0089582E00895C8
:100B300083E0089581E00895EF92FF920F931F9351
:100B4000CF937C018B010E946B05C82F811117C0C8
:100B50008091E80085FD0BC08091E8008E7780933E
:100B6000E8000E946B05882399F3C82F08C0F7019D
:100B700081917F018093F1000150110949F78C2F79
:100B8000CF911F910F91FF90EF900895CF93FC01AB
:100B900080914D04843001F5C091E900CF7020911F
:100BA000EC00922F917020FD90E8C92B81E080939A
:100BB000E9008091E80080FF0CC050E040E060E276
:100BC00070E0CF010E949C058091E8008E778093B1
:100BD000E800CF70C093E900CF910895EF92FF92A3
:100BE0000F931F93CF937C018B010E946B05C82F3D
:100BF000811117C08091E80085FD0BC08091E8004D
:100C00008B778093E8000E946B05882399F3C82FA7
:100C100008C08091F100F70181937F010150110913
:100C200049F78C2FCF911F910F91FF90EF9008956E
:100C30008091540387FF13C08091E80082FF06C0B3
:100C40008091E8008B778093E80004C080914D0488
:100C50008111F2CF089580914D048823D9F38091BA
:100C6000E80080FFF8CF8091E8008E77ECCF982FD6
:100C70009093E900242F762F50E0891731F070917E
:100C8000EC002091ED005091F00021FD07C09F5F26
:100C9000973071F78093E90081E008953091EB007F
:100CA0003E7F3093EB003091ED003D7F3093ED00BF
:100CB0003091EB0031603093EB007093EC002093A7
:100CC000ED005093F0002091EE0027FDE0CF80E092
:100CD0000895CF92DF92EF92FF920F931F93CF93DD
:100CE000DF93C8EDD0E088818F7E8883E7EDF0E068
:100CF00080818160808384E082BF81E080934503AE
:100D000088818E7F888302EE10E0F80110821092B5
:100D1000DA0081EEC82ED12CF601108288818F77FF
:100D2000888388818068888388818F7D888319BCC7
:100D300010924D04109253031092520310925103DB
:100D400090EEE92EF12CF70180818B7F80838881E2
:100D50008160888342E060E080E00E943706F6010F
:100D600080818E7F8083F801808181608083808193
:100D700088608083F70180818E7F80838881806195
:100D80008883DF91CF911F910F91FF90EF90DF90BB
:100D9000CF900895FC0180915A0390915B038617D0
:100DA0009707A0F06115710529F49091E8009E77EE
:100DB0009093E80090E06115710551F4911108C01D
:100DC0008091E80082FF34C080E00895BC01F2CF3A
:100DD00080914D048823C1F18530C1F18091E800F4
:100DE00083FD30C08091E80082FDEACF8091E80069
:100DF00080FFE1CF8091F3002091F200382F611540
:100E0000710519F02830310558F091E0283031058E
:100E100009F090E02091E8002E772093E800CBCFF6
:100E200081918093F100615071092F5F3F4FE7CFAF
:100E300080914D04882341F0853041F08091E80095
:100E400083FFBECF81E0089582E0089583E0089596
:100E5000089580914703089508950895982F907FED
:100E6000903BE9F040F49039D1F0903AC1F09038DD
:100E7000B1F080E00895903D19F020F4903CC9F75E
:100E800082E00895903E59F0903F99F7815F8F304E
:100E900080F7E82FF0E0E055FE4F8081089583E071
:100EA0000895FF920F931F93CF93DF9300D000D04C
:100EB00000D00F92CDB7DEB78C0108511F4F809143
:100EC0004D04843009F06CC080912B018F708093A9
:100ED000E9008091E80082FF63C08091E80085FF0F
:100EE0005FC050E040E064E070E0CE0101960E94F7
:100EF000EE058091E80085FD05C08091E8008B77C4
:100F00008093E800FA808F2D0E942E07282FFD8203
:100F10008B818E838C818F8321110AC089818430DB
:100F200039F1873029F1863029F121E0853039F611
:100F300030E0E5E0F0E0EC0FFD1FE30FF11DF08085
:100F40004FB7F894D8011196EC911197F0E0CF01CA
:100F5000019612966C9170E00E945033D8015C911A
:100F60005817190649F44FBF3F5F321710F3A7CF48
:100F700023E0DECF22E0DCCF13968D919C91149775
:100F8000E80FF91FF08211968C91119790E001966D
:100F900012966C9170E00E945033F8018183E3CF88
:100FA00027960FB6F894DEBF0FBECDBFDF91CF916D
:100FB0001F910F91FF900895DF92EF92FF920F9390
:100FC0001F93CF93DF9300D000D0CDB7DEB77B0166
:100FD000142FD22E4A832B830C83842F0E942E073A
:100FE000811141C082E0E816F104C1F183E0E81606
:100FF000F10439F0EA94EF2829F5173F29F485E048
:1010000004C087E0073F09F084E0898380914D04A4
:101010008430C1F4809126018F708093E90050E004
:1010200040E064E070E0CE0101960E949C058111D1
:1010300009C08091E80085FD05C08091E8008E77A9
:101040008093E8000F900F900F900F90DF91CF9159
:101050001F910F91FF90EF90DF90089587EFD812C6
:10106000D3CF86E0D2CF12951F701983CFCF9C01CA
:101070004FB7F89480913E0390913F03A0914003B5
:10108000B09141034FBF821B930B08952FB7F89483
:1010900080913E0390913F03A0914003B0914103A2
:1010A0002FBF0895CF93DF9300D00F92CDB7DEB757
:1010B00020913C03382F330F2170232B2A83990F63
:1010C000881F8827881F892B8B83E0913A03F09132
:1010D0003B03309741F088E089830284F385E02D5B
:1010E000CE01019609950F900F900F90DF91CF914F
:1010F000089520913803309139032817390771F08A
:101100009093390380933803E0913A03F0913B03C5
:10111000309721F00084F185E02D09940895209105
:101120003603309137032817390771F0909337034E
:1011300080933603E0913A03F0913B03309721F01E
:101140000680F781E02D09940895E0913A03F0912B
:101150003B03309721F00190F081E02D099480E06D
:101160000895FA01811101C0FB010994089580914D
:101170003103982F9E7F29F4817082608093310320
:1011800008958635E8F381708465F8CFAF92BF92F9
:10119000DF92EF92FF920F931F93CF93DF93082F6D
:1011A000162FE901E42FF0E0E953FE4F611110C062
:1011B000E4915E2F4E2F4983E8835A83DF91CF91CC
:1011C0001F910F91FF90EF90DF90BF90AF90089527
:1011D000E62EF12C4491D42EE42FF0E026E0829FFD
:1011E000C00111242FEF30E0B9010E943C33802F61
:1011F00090E0880F991F55E5569FD001579FB00D7D
:1012000011248A1B9B0B982F990F890F5901AE1837
:10121000BF08AE9ED001AF9EB00DBE9EB00D112492
:101220005B2F189F80011124012F11275901A01A4B
:10123000B10AAE9E8001AF9E100DBE9E100D11240E
:101240005901A81AB108AE9CC001AF9C900DBE9C7C
:10125000900D1124892F9927281B390B2E9FC0012F
:101260002F9F900D3E9F900D1124E92F6230710544
:10127000A1F050F46115710509F49DCF613071053D
:1012800081F0EB2F512F97CF6430710569F080F01A
:101290006630710509F48FCFF4CFE42F4B2F592F0F
:1012A0008ACFE42F412F87CFEB2F542F492F83CFA5
:1012B0004B2F5D2DE12F7FCF86E0EDEBF2E0DF01DC
:1012C0001D928A95E9F71092BC021092BB0210920F
:1012D000BA0208950E9446089C019091BF02809135
:1012E000C002982B21F03093B9022093B80290915C
:1012F000C1028091C202982B21F03093B702209353
:10130000B602E0913A03F0913B03309749F082E056
:101310008093BD020480F581E02D8DEB92E009946D
:1013200008954091BF02803F59F48091C00287FF29
:101330000DC01092C00241110BC01092BC0208C037
:10134000813F81F48091C00218169CF3442381F000
:101350008091C1029091C202892B09F05AC010926B
:10136000BB020895823F49F447FFF0CF1092BF02BD
:101370008091C0028111ECCFE0CF833F19F41416A5
:10138000ACF3E4CF9091C102893F29F41916F4F629
:101390001092C102DBCF8A3F19F497FFD7CFF8CF65
:1013A0009091C2028B3F29F497FFD0CF1092C202D6
:1013B000CDCF8C3F19F41916CCF3C8CF9CE0980F11
:1013C000953090F4845F990B21E030E0B90102C0C0
:1013D000660F771F8A95E2F7CB0180959091BE0248
:1013E00089238093BE02B2CF8D3F31F48091BA023F
:1013F0008E7F8093BA02AACF8E3F21F48091BA02E9
:101400008D7FF7CF8F3F09F0A1CF8091BA028B7FFC
:10141000F0CF08958091BA0280FD16C081FD16C0FC
:1014200082FD16C08091BB028823A1F0883280F42F
:1014300028E0829FC001112468E270E00E945033CE
:10144000862F672B39F0089582E0089584E008958F
:1014500088E0089581E008958091BA0280FD14C06B
:1014600081FD14C082FD16C08091BC02882381F0EA
:10147000843180F422E3829FC001112464E170E092
:101480000E945033862F08958CE0089589E10895D5
:1014900085E0089582E30895803F31F40E942C0A8C
:1014A00081958093C0020895813F19F40E942C0A0F
:1014B000F8CF823F31F40E942C0A81958093BF02BD
:1014C0000895833F19F40E942C0AF8CF893F29F42C
:1014D0000E940A0A8093C10208958A3F21F40E9463
:1014E0000A0A8195F7CF8B3F31F40E940A0A819551
:1014F0008093C20208958C3F19F40E940A0AF8CF23
:101500009CE0980F953070F4845F990B21E030E0F7
:1015100001C0220F8A95EAF78091BE02822B809348
:10152000BE0208958D3F31F48091BA0281608093AC
:10153000BA0208958E3F21F48091BA028260F7CFFB
:101540008F3FB9F78091BA028460F1CF80E00895AF
:10155000F894E82FE295EF70F0E031A1282F2F707A
:1015600081E090E001C0880F2A95EAF7982F9095C6
:10157000932391A392A1892B82A3789408959091AB
:101580001A0292FF06C0282F28712830F9F4877FAD
:10159000846093FF06C0282F28712831F1F4877EDC
:1015A000846120911B0220FF06C0382F387138302B
:1015B000D9F4877F816021FF06C0282F2871283148
:1015C000D1F4877E816194FD877E0895282F247150
:1015D0002430F9F68B7F8860DCCF282F24712431EA
:1015E00001F78B7E8861DDCF382F3171313019F7EB
:1015F0008E7F8860E0CF282F2171213121F78E7EE8
:101600008861E1CFCF93DF93EC0182389105A9F196
:10161000D8F58133910509F496C048F589329105D2
:1016200009F48AC08A9709F495C0C11521E5D2074B
:1016300008F0BCC0C11530E5D30708F014C1C83E9E
:10164000D10508F09CC0C03ED10560F5C83AD1056F
:1016500008F087C0C53AD10508F0FDC0C130D105FA
:1016600009F12097F9F0C430D105E0F440C085338A
:10167000910509F45AC0C997C1F680911A02837086
:1016800089F0C0EED0E00EC0833E910599F170F470
:10169000803E910501F1823E910539F680911A0252
:1016A00082FD21C0CE01DF91CF910895863E910544
:1016B00061F1873E910571F1843E910509F0B5CF46
:1016C00080911B0281FFEECF80911A02C7EED0E01D
:1016D00084FD0DC0E7CF80911A0280FD12C1909168
:1016E0001B0290FFDFCFC3EED0E084FFDBCFD0E062
:1016F000C0E0D8CF80911A0282FD06C190911B02F2
:1017000090FDBFCF84FFCECFF2CF80911A0283FD30
:10171000DDCFC8CF80911A0283FDF9C090911B02E2
:1017200091FFF0CFC4EED0E0BDCF80911A0285FFCB
:10173000B9CFC9E2D0E0B6CF80911A0285FFB2CF0F
:10174000C5E3D0E0AFCF80911A0286FFABCFCAE2EB
:10175000D0E0A8CF80911A0286FFA4CFC1E3D0E0E9
:10176000A1CFCF3BD10518F6C85AD0E0CC0FDD1F72
:10177000CB5CDE4F0990D881C02DD46493CFC115C6
:1017800040E2D40758F4C11581E0D80708F08ACFA9
:10179000C03FD10508F4ABCFD06584CFC11590E42C
:1017A000D90708F4A4CFDF70D06A7CCFC11525E536
:1017B000D20700F5C11534E5D30708F08AC0C1157A
:1017C00043E5D40708F071C0C11582E5D80708F4D5
:1017D00067C0CE018370992721E030E002C0220F5C
:1017E000331F8A95E2F7C695C69580E2C89FE0014F
:1017F000112452C0C11599E5D907A8F4C11528E5EF
:10180000D20708F06BC0C11536E5D30708F06FCFDB
:101810008C2F0E94BF0AC82FD0E0DC2FCC27CC270A
:10182000DF71D0623FCFC1154AE5D40708F45BC031
:10183000CE0190568115904208F059CF8D2F8F71AF
:101840000E94BF0A90E0982F882788279F719C01EB
:101850002C2BE901E6CFC55AD0E0CE5CDE4FC88123
:10186000D0E0D0641FCFCE01E4E096958795EA954D
:10187000E1F783702C2F26952695237040E2249F54
:1018800090011124382B8C2F8370C1E0D0E002C06E
:10189000CC0FDD1F8A95E2F7C22BD32BDC6802CF79
:1018A000DC2FCC27C16FD06AFDCECE018370992783
:1018B00021E030E002C0220F331F8A95E2F7C6957F
:1018C000C69590E2C99FE0011124C22BD32BDA68A0
:1018D000E9CEDC2FCC27C46FD06AE4CEDC2FCC2736
:1018E000C06FD06ADFCE8C2F8F700E94BF0A34E0A9
:1018F000D695C7953A95E1F7CF709C2FEC01D0694A
:10190000D1CEC9E3D0E0CECEC2EED0E0CBCEC6EE93
:10191000D0E0C8CE80911302811110921302089575
:1019200080959091120298239093120208958091CD
:10193000120290911102892B90911002892B8093B1
:10194000C30190911302992391F0892B8093C301D5
:1019500020E085EC91E0FC013191CF0131112F5F46
:10196000F1E08B3C9F07B9F721110E948A0CE091AE
:101970003A03F0913B03309749F081E08093C20134
:101980000280F381E02D82EC91E009940895E5EC6A
:10199000F1E09191891303C0DF0111971C9291E04E
:1019A000EB3CF907B1F70895A5ECB1E0EFEF90E05B
:1019B0002D91821751F0EF3F19F4211101C0E92F49
:1019C0009F5F9630A9F7EF3F09F408950E2E000CA3
:1019D000FF0BEE53FE4F8383089580910E0290918A
:1019E000DD01981301C008958F5F8770FACFE92F4A
:1019F000EE0FE90FEE0F8E0F982F97708695869554
:101A0000869523E0829FF0011124E253FE4F50E0BF
:101A100040E080E0219130E0092E02C03695279504
:101A20000A94E2F721703327042E01C0220F0A9492
:101A3000EAF7822B4F5F5F4F4330510559F7089506
:101A4000E92FEE0FE90FEE0F8E0F982F977041E000
:101A500001C0440F9A95EAF786958695869593E09E
:101A6000899FF0011124E253FE4F30E020E070E046
:101A70005191DF011197CB01022E02C096958795F7
:101A80000A94E2F7817081958527842385278C93BA
:101A90002F5F3F4F2330310559F7089590E080E0E4
:101AA0000E948F0890E080E00E9479081092110255
:101AB000109210020E94970C0E945C090C946A0913
:101AC000809314020C944E0D882341F080959091E0
:101AD00011028923809311020C94970C0895882396
:101AE00039F090911102982B909311020C94970C5D
:101AF0000895882321F00E94900C0C94970C08956F
:101B0000882339F090911202982B909312020C9432
:101B1000970C0895882309F452C0823871F40E940A
:101B2000A50881FF4CC089E30E94D40C0E94970C49
:101B300089E30E94C70C0C94970C833859F40E94D7
:101B4000A50880FF3CC083E50E94D40C0E94970C3E
:101B500083E5EFCF843859F40E94A50882FF2FC097
:101B600087E40E94D40C0E94970C87E4E2CF9CEF9C
:101B7000980F913AF0F290E2980F983050F48770F5
:101B800091E001C0990F8A95EAF7892F0E94900C85
:101B9000D2CF9BE5980F933020F490E080E00C9436
:101BA0008F0898E5980F973120F490E080E00C942E
:101BB0007908803F20F00E9491090C946A090895E9
:101BC000982F92959F7011F0892F94E0282F2695D9
:101BD000269511F09E5F822F869509F09F5F892FD1
:101BE00008959C013A9521153F4150F5FC01EE27DF
:101BF000F170BC0166277270AC01442754709C01DF
:101C00002227387094FF0EC080E1EF2B09F480E0AA
:101C1000672B09F08062452B09F08064232B89F043
:101C20008068089581E0EF2B09F480E0672B09F0CC
:101C30008260452B09F08460232B19F08860089599
:101C400080E00895DF92EF92FF920F931F93CF935E
:101C5000DF93CDB7DEB7A0970FB6F894DEBF0FBE07
:101C6000CDBFF82ED62EE42E8E010F5F1F4F80E2DF
:101C7000F80111928A95E9F781EA898380914C04F1
:101C80000E94E00D8B83DC82ED82F1E0FF1201C047
:101C9000FE828FEF8F83C8010E94C605A0960FB603
:101CA000F894DEBF0FBECDBFDF91CF911F910F9192
:101CB000FF90EF90DF9008959C0180914D04843057
:101CC000F9F483E08093E9009FEF8091E800915060
:101CD00085FD06C085ED8A95F1F700009111F5CFDD
:101CE0008091E80085FF0CC050E040E063E070E0C8
:101CF000C9010E949C058091E8008E778093E800DE
:101D0000089580934203709344036093430380914A
:101D10004D04843001F583E08093E9008FEF9091CA
:101D2000E800815095FD06C095ED9A95F1F7000009
:101D30008111F5CF8091E80085FF0DC050E040E0B3
:101D400063E070E082E493E00E949C058091E800EB
:101D50008E778093E8000895BC0184E00C94810E96
:101D6000BC0183E00C94810E9C0183E08093E90028
:101D70009FEF8091E800915085FD06C085ED8A9522
:101D8000F1F700009111F5CF8091E80085FF0CC0BC
:101D900050E040E066E070E0C9010E949C0580913F
:101DA000E8008E778093E8000895CF93DF93EC01ED
:101DB00083E08093E9008FEF9091E800815095FDDA
:101DC00006C095ED9A95F1F700008111F5CF80914D
:101DD000E80085FF19C08091310150E040E0811199
:101DE00016C068E070E0CE0101960E949C058091CB
:101DF000E8008E778093E80089E0FE01A8E4B3E074
:101E000001900D928A95E1F7DF91CF91089569E0F5
:101E100070E0CE01EACF81E08093E00080E2809321
:101E2000D8001092C9008FE19EE40197F1F700C03D
:101E3000000087E090EBDC018093530490935404FE
:101E4000A0935504B093560488E19CE00FB6F89433
:101E5000A895809360000FBE90936000FFCFCF9352
:101E6000C82F882309F490C08238C1F40E94A508C5
:101E700081FD8AC089E30E94D40C0E94970C2FEF49
:101E800081EE94E0215080409040E1F700C00000D6
:101E900089E30E94C70CCF910C94970C8338A1F46E
:101EA0000E94A50880FD70C083E50E94D40C0E94AA
:101EB000970C2FEF81EE94E0215080409040E1F7A5
:101EC00000C0000083E5E5CF8438A1F40E94A50896
:101ED00082FD5AC087E40E94D40C0E94970C2FEF19
:101EE00081EE94E0215080409040E1F700C0000076
:101EF00087E4CFCF8CEF8C0F813A68F4E5ECF1E00A
:101F00008191C817D9F121E0EB3CF207C9F78C2F7A
:101F10000E94D40CC0CF80E28C0F883068F4C77068
:101F200021E030E001C0220FCA95EAF78091120249
:101F3000822B80931202AFCFEBE5EC0FE33040F43D
:101F4000F0E0EE5CFE4F808190E0CF910C948F0822
:101F5000E8E5EC0FE73150F4F0E0EE0FFF1FEB5C2B
:101F6000FE4F80819181CF910C947908C03F60F041
:101F70008C2F0E944C0ACF910C946A098C2F0E94DE
:101F8000C70C0E94970CC3CFCF9108951F93CF9396
:101F9000DF93182FD0E0C0E0893311F4C0E5D0E022
:101FA000812F0E942F0F209731F4812FDF91CF9145
:101FB0001F910C948A0D8FE99FE00197F1F700C003
:101FC00000002197F0CF0F931F93CF93DF93C62F7D
:101FD000D42F022FFC0182818823A1F060934B044F
:101FE0000E94460890934A0480934904C77081E098
:101FF00001C0880FCA95EAF7DF91CF911F910F9129
:102000000C94800D80914B04681335C08091490475
:1020100090914A040E943708883C910560F510E2CF
:102020001D0FCD17B9F080E28C0F883040F4C770D7
:1020300081E001C0880FCA95EAF70E94790D183037
:1020400048F481E09D2F977001C0880F9A95EAF7B8
:102050000E94800D802F0E94C60F183098F4D77010
:1020600081E001C0880FDA95EAF7DF91CF911F91E7
:102070000F910C94790DC77081E001C0880FCA954B
:10208000EAF7F3CFDF91CF911F910F910895EF926F
:10209000FF921F93CF93DF93EC017C0180EEE81A4F
:1020A000F108CE010E94F10D182F88E0E816F10426
:1020B00010F02097B9F4812F0E94800D8C2F0E9480
:1020C0002F0F8C2F0E948A0D88E0E816F10410F083
:1020D000CD2B61F4812FDF91CF911F91FF90EF9075
:1020E0000C94790D812F0E946F0DE8CF812FDF9125
:1020F000CF911F91FF90EF900C94640D9F92AF923F
:10210000BF92CF92DF92EF92FF920F931F93CF93E4
:10211000DF93EC01A62E8AE0982E2881222309F471
:10212000A1C0213009F04BC08981813091F48E012A
:102130000E5F1F4F8A810E94C60FE80121968A2DEB
:10214000815058F3EFE9FFE03197F1F700C000004C
:10215000F7CF823039F48E010E5F1F4F8A810E94C3
:102160002F0FEBCF833039F48E010E5F1F4F8A8122
:102170000E948A0DE2CF843011F02196DFCF2A81B0
:10218000229690E080E0AE014F5F5F4F2053330B0B
:102190002A30310548F0019788F2EFE9FFE03197E6
:1021A000F1F700C00000F7CF989EB001999E700D26
:1021B0001124C901860F971F2981EA01E4CFE22F7C
:1021C000F0E0EE5DFE4FB490822F86958695869561
:1021D00090E0FC01EE5EFE4FE4902770F12C022EA1
:1021E00002C0F594E7940A94E2F731E0E322FF2479
:1021F000FC01EE5FFE4FC490D12C022E02C0D5949C
:10220000C7940A94E2F7E1E0CE22DD24FC01EE500F
:10221000FF4F049110E002C0159507952A95E2F74B
:1022200001701127E114F10419F081EE0E942F0FC3
:10223000C114D10419F086EE0E942F0F8B2D0E943D
:10224000C60FCD2819F086EE0E948A0DEF2819F0EE
:1022500081EE0E948A0D012B09F470CF8CE20E945E
:10226000C60F6CCFDF91CF911F910F91FF90EF9030
:10227000DF90CF90BF90AF909F9008950F931F93E2
:10228000CF93DF93182FD62FC42F022F82E0413037
:1022900019F0423029F484E00E94800D0E94970CCE
:1022A0008FED9EE20197F1F700C00000111115C0FB
:1022B00080910701DD2369F08F5F8A3018F48093E5
:1022C000070102C0109207018091070170E060E0F1
:1022D00016C08150A0F789E0F2CFE02FF0E0EC5F6C
:1022E000FE4F8081113091F5DD2361F18F5F8536DE
:1022F00010F4808301C01083808161E070E090E081
:102300000E94F1036AE08EE494E00E947E108FED5B
:102310009EE20197F1F700C0000082E0C13019F0A1
:10232000C23029F484E00E94790D0E94970C8FED51
:102330009EE20197F1F700C00000DF91CF911F915D
:102340000F9108958150A8F683E6D3CFDD23E1F005
:10235000843611F481E003C08A3020F48AE080835F
:102360008081B4CF2AE0622F0E9422330E94223360
:102370009F5F9A3039F0908380819AE0899F802D09
:102380001124EDCF1082F8CF843621F39FEF980F00
:102390009A3010F41082E4CF9E3F10F08AE5DFCF30
:1023A0002AE0622F0E9422330E9422339150929F92
:1023B000902D11249083D4CFDF92EF92FF920F9350
:1023C0001F93CF93DF9300D000D000D0CDB7DEB7FE
:1023D000F82E8DE18F1540F08FEF93E00E94FF33D0
:1023E00001EB11E08823D1F026960FB6F894DEBFFA
:1023F0000FBECDBFDF91CF911F910F91FF90EF9056
:10240000DF900895011594E0190771F3C8010E9447
:10241000FF33811101C0FA940F5F1F4FF110F2CF0B
:1024200019821A821B821C82DD24D39478018FEFDB
:10243000E81AF80AC8010E94FF3389831A828823A8
:1024400099F29FEF980F933080F48A83D9820E5FC0
:102450001F4FC7010E94FF338B83882329F260E05E
:10246000CE0101960E947E10E1CF843029F5C7018C
:102470000E94FF33F82EC80102960E94FF338E831C
:10248000C80103960C5F1F4F0E94FF338D83F0FC41
:102490001E82F1FC1D828D819E819C01215031099B
:1024A0003E832D83892B09F4C1CF8FE99FE00197EB
:1024B000F1F700C00000EFCF0E5F1F4F853009F429
:1024C000B5CF8701CCCF0F931F93CF93DF93C42F4A
:1024D000D0E0CC0FDD1F2CE0629FC00DD11D112478
:1024E00030E3839FC00DD11D1124CE01C1960E94FF
:1024F000FF33082F10E0102F0027CE01C2960E9454
:10250000FF339801282BC901DF91CF911F910F91C3
:102510000895462F883038F4743028F4663018F463
:10252000672F0C94631290E080E008950F931F933F
:10253000CF93DF938C0180914C040E94E00DC82F53
:10254000C7FF07C0D0E08D2FDF91CF911F910F9172
:102550000895DC2FB8018C2F0E9489120E94020B73
:10256000019789F7C150ECCFCF93DF93EC010E9424
:102570009612BE010E948912DF91CF910C94020B3A
:10258000FC01808191810E94B412292F2F709295B5
:102590009F7092509E3078F4E92FF0E0E654FB4CA7
:1025A0000C946433803F19F020F4883E20F481E0DD
:1025B0000895843FE1F380E00895883EC0F3813FB1
:1025C000D1F7F5CF822F869586958695089583E27B
:1025D00090E00E94FF33823289F484E290E00E940E
:1025E000FF33853059F485E290E00E94FF3391E09B
:1025F000803309F090E0892F8170089580E0FCCF4E
:10260000CF9384E090E00E94FF33C82F82E290E0F5
:102610000E94FF33982F8C2FCF910895CF93DF9393
:10262000C1EBD1E060E0CE010E9413342196C115C8
:1026300084E0D807B9F7DF91CF9108956F927F9228
:102640008F929F92AF92BF92CF92DF92EF92FF92C2
:102650000F931F93CF93DF938CECC82E83E0D82E7B
:102660009DE6E92EF12CE701E09736011BC0F5014C
:1026700085909490692DC8010E941334682DC8017B
:1026800001960E94133482E0A80EB11C0E5F1F4F0A
:10269000C017D10761F78CE0680E711C2C96CE151F
:1026A000DF0529F08E010C5011095301E0CF7E01A6
:1026B00080E3E80EF11C80E3C80ED11C8DEEE81615
:1026C00081E0F80681F6DF91CF911F910F91FF9085
:1026D000EF90DF90CF90BF90AF909F908F907F90C2
:1026E0006F900895CF93C82F6FEF811162E283E25C
:1026F00090E00E9413346FEFC11165E084E290E036
:102700000E9413346FEFC11160E385E290E0CF9136
:102710000C94133480E00E94721360E086E290E033
:102720000E9413340E941E130E940E1381E00C9429
:1027300072135F926F927F928F929F92AF92BF922D
:10274000CF92DF92EF92FF920F931F93CF93DF937D
:1027500000D000D00F92CDB7DEB78091310380FD5D
:102760000AC0E1EDF2E0118210821282339622E07B
:10277000E53FF207C1F78090CC029090CD02811422
:10278000910409F455C0D12CC12C66246394712C9A
:1027900053E0552E8091CB0293010C2C01C0220FE7
:1027A0000A94EAF7822309F43BC0F601EE0FFF1FFB
:1027B000E80DF91DE590F490E114F104C9F145E04C
:1027C00050E0B701CE0101960E94DC3309810F3F32
:1027D00039F18A81800F9927991F8D30910514F066
:1027E0008CE090E05C01AA0CBB1C8A0D9B1DFC01D7
:1027F000EF52FD4F5F01059D800111240F521D4FC7
:102800000A151B0520F0F5E0EF0EF11CD8CF98015A
:102810004D816C818B810E94C6080D5F1F4FF0CFE8
:102820002FEFC21AD20A38E0C316D10409F0B2CF92
:10283000879A31B33F7721B320684FB7F89481ED81
:1028400092E0FC015191CF0168E021BB000000C083
:1028500057FF31BB550F000000C000C000C031BBA6
:1028600000C06A9591F7F2E0853F9F0751F74FBF8F
:102870008FE594E00197F1F700C000000F900F90F2
:102880000F900F900F90DF91CF911F910F91FF90BC
:10289000EF90DF90CF90BF90AF909F908F907F9000
:1028A0006F905F9008954F925F926F927F928F9298
:1028B0009F92AF92BF92CF92DF92EF92FF920F93CF
:1028C0001F93CF93DF93FC016280448081E0848377
:1028D000ECECF2E07490EBE4F3E0E491C5EFD2E0CD
:1028E00031EDE32E32E0F32E41E3C42E43E0D42E4B
:1028F00052E0A52EBB24B39488248A94912C5524AD
:102900005A94E7190E2F10E082E0861530F080917E
:1029100032038883809133038983411021C01B8255
:102920001A8297014A81698188810E94C60825968A
:1029300083E0E80EF11CCC16DD0631F7DF91CF9174
:102940001F910F91FF90EF90DF90CF90BF90AF90CD
:102950009F908F907F906F905F904F900C94991301
:102960008B818823E9F081508B83859DC0011124E0
:102970006C8170E00E943C33FB01FF27E453FD4F64
:102980008491E82FE719E59DC0011124B8010E9448
:102990003C3380913403689FB00111247A83C1CF06
:1029A0000E94CC3320913403269521582A9DA00102
:1029B0002B9D500D1124452F5527841795070CF09A
:1029C000B0CF82E0861588F40E94CC33B4010E9417
:1029D000503388830E94CC33209133032695622F95
:1029E00070E00E945033280F29831A8280913403AB
:1029F000893C20F088EC8C838B8393CF8431D8F78B
:102A000084E1F9CFEF92FF920F931F93CF93DF935F
:102A10008C01C1EDD2E0F12CE12CF80194816091A0
:102A2000330380913203F6E0EF16F104FCF49923AE
:102A3000F9F09E01409134030E94C6082FEFE21A7C
:102A4000F20A23968CE0E816F10439F70E949913F4
:102A5000F801848190E00196817099278483DF9149
:102A6000CF911F910F91FF90EF900895992309F353
:102A70009E0140E0E1CF8F929F92AF92BF92CF92A2
:102A8000DF92EF92FF920F931F93CF93DF93EC01AE
:102A90004C81042F10E09801D8010E94A9349B01B9
:102AA000AC010E9474344B015C01E0E2F0E0E01BF9
:102AB000F10BA5E5B0E0AC019B010E9474346B0101
:102AC0007C019F01DF010E9471339B01AC010E94D8
:102AD0007F349B01AC01280D391D4A1D5B1DC701C8
:102AE000B6010E948734F22E822F90E039E23F1522
:102AF000D8F143E0249F9001112435952795122F9A
:102B0000109591EDC92E92E0D92E00E085E5E82ED2
:102B1000EF188E2D01FD8F2D9601412F609133030B
:102B20000E94C6080F5F53E0C50ED11C0C3089F718
:102B30000E9499139C8181E0992319F0903219F435
:102B40008FEF8093240180912401890F8C83DF9182
:102B5000CF911F910F91FF90EF90DF90CF90BF909A
:102B6000AF909F908F90089525E530E0A901481B14
:102B7000590BCA019A01220F331F280F391F37FF43
:102B8000BCCF2F5F3F4FB9CF0F931F93CF93DF93EE
:102B9000C1EDD2E0FE01118210821282339682E0F2
:102BA000E53FF807C1F710E000E08091CF02082E62
:102BB000000C990B081719078CF180912301082E3E
:102BC000000C990B801791074CF19E014091340342
:102BD00060913303809132030E94C6080F5F1F4F3C
:102BE00023960C30110509F70E9499138091220158
:102BF0009091CF02980F9093CF0220912301280F3C
:102C000020932301121614F49B301CF081958093BD
:102C10002201DF91CF911F910F910895198218829F
:102C20001A82DCCFBF92CF92DF92EF92FF920F9386
:102C30001F93CF93DF93FC018281DD24DA9480FD22
:102C400002C0DD24D39401ED12E0D0E0C0E02CE01E
:102C5000B22EF80111821082128294E0E92EF12C3A
:102C6000C12C8091CE028C0D8D300CF43DC06B2DAB
:102C70000E942E33892F082E000C990B8C179D076C
:102C800091F4809134038E9DA0018F9D500D1124ED
:102C900055954795559547959801609133038091D7
:102CA00032030E94C608CD0CF1E0EF1AF108C9F614
:102CB00021960D5F1F4FCC30D10559F60E94991314
:102CC0008091CE0291E0D91215C0811111C08BE024
:102CD0008093CE02DF91CF911F910F91FF90EF90E3
:102CE000DF90CF90BF90089587FFC5CF845FC3CF9B
:102CF0008150EECF90E00196BE010E945033E8CFA4
:102D0000EF92FF921F93CF93DF93EC0181EDE82EBA
:102D100082E0F82E10E08C8197014091340360919D
:102D20003303810F0E94C6081B5E83E0E80EF11C8E
:102D30001C3F89F70E9499139A818C8190FF08C0EB
:102D40008F5F8C83DF91CF911F91FF90EF9008955B
:102D50008150F7CF9091310390FF0CC0E1EDF2E08C
:102D6000818360834283339692E0E53FF907C1F7A0
:102D70000C94991308950F931F93CF93DF9300D072
:102D80000F92CDB7DEB78C018091D00281110AC0BD
:102D90009E012F5F3F4F4FEF6FEF0E94C6088A8161
:102DA0008093D002F8016481613069F08091D00293
:102DB00040E0662361F040E0623011F44091D002BF
:102DC00080E060E004C06091D00240E080E00E94BA
:102DD000AA16F801848190E0019663E070E00E94F9
:102DE000503384830F900F900F90DF91CF911F91FC
:102DF0000F910895CF93DF9300D00F92CDB7DEB738
:102E00009091310390FF0AC09E012F5F3F4F0E94B7
:102E1000C6084B8169818A810E94AA160F900F9083
:102E20000F90DF91CF910895CF93DF93EC01E1E311
:102E3000F3E0438162818C810E94FA168C818F5F5E
:102E40008C83DF91CF910895CF93DF93EC01EC81D8
:102E5000F0E0E453FD4F4491E1E3F3E062818181CE
:102E60000E94FA168C818F5F8C83DF91CF91089539
:102E7000CF92DF92EF92FF926B017C010E94B70824
:102E8000B701A60188E090E0FF90EF90DF90CF902F
:102E90000C9425345F926F927F928F929F92AF92A3
:102EA000BF92CF92DF92EF92FF920F931F93CF9337
:102EB000DF9300D00F92CDB7DEB7182F762E042FF8
:102EC000622E9091310390FF29C0E92FE695AE2F35
:102ED000B0E0AB57BE4F8C918093C9029E7F923079
:102EE00081F59E012F5F3F4F812F0E94C6084B81C5
:102EF00069818A810E94AA1610933203709233036B
:102F000000933403662051F06091310370913203D5
:102F100080913303909134030E9438170F900F90E3
:102F20000F90DF91CF911F910F91FF90EF90DF9065
:102F3000CF90BF90AF909F908F907F906F905F9059
:102F40000895823019F400913403D6CF863019F4F5
:102F500010913203D1CF8930D9F3893169F6E95123
:102F60008E2F8170582EE695F0E0E953FD4FA59025
:102F7000B490BB2481EDE82E82E0F82ED12CC12C38
:102F80009CE0892E912CC601B4010E943C33812F14
:102F9000511013C0860F9701402F672D0E94C6085D
:102FA000CA0CDB1C83E0E80EF11C85EFE81682E01A
:102FB000F80649F70E9499139FCF861BECCFE1E3F7
:102FC000F3E0438128E0421B08F440E021E0628105
:102FD00081810C944A17E1E3F3E0438128E0420F3A
:102FE00008F44FEF21E0628181810C944A17E1E3FC
:102FF000F3E0628128E0621B08F460E021E0438195
:1030000081810C944A17E1E3F3E0628128E0620FCA
:1030100008F46FEF21E0438181810C944A17E1E3CA
:10302000F3E0818121E04381628188500C944A174A
:10303000E1E3F3E0818121E043816281885F0C94C8
:103040004A1780913503882319F081508093350306
:103050006091310370913203809133039091340376
:103060000C94381780913503833018F48F5F809368
:103070003503609131037091320380913303909155
:1030800034030C9438179091310390FF3DC0917038
:10309000811129C0926090933103662351F06091B1
:1030A00031037091320380913303909134030E9475
:1030B000381760913103669570E04BE050E087E18E
:1030C00091E00E94E533892BA9F01092CA0281E0B9
:1030D0008093C60220E040913403609133038091D5
:1030E00032030C944A178B3210F09465D4CF880FBA
:1030F000982BD1CF81E08093CA020E94460890931A
:10310000C4028093C302E3CF08958091310380FF0E
:103110001AC08E7F80933103609131037091320326
:1031200080913303909134030E9438171092CA02A1
:103130002FEF80E792E0215080409040E1F700C0FF
:1031400000000C94991381608093310361E08695AF
:103150000C94431821E030E0A90102C0440F551F30
:103160008A95E2F7CA012091CB02662399F0822B5F
:103170008093CB028091CA02811106C080913103F5
:1031800060E086950E9443188091310380FD05C060
:103190000C94991380958223EBCF0895CF93C82F79
:1031A00081FB662760F9811101C060E080E00E9428
:1031B000AA18C2FB662760F9C11101C060E081E076
:1031C0000E94AA18C3FB662760F9C11101C060E024
:1031D00082E00E94AA18C4FB662760F9C11101C0F1
:1031E00060E083E00E94AA18C5FB662760F9C11160
:1031F00001C060E084E00E94AA18C6FB662760F95F
:10320000C11101C060E085E00E94AA18C7FB6627D3
:1032100060F9C11101C060E086E00E94AA188C2FFD
:10322000CF910895CF93DF93CDB7DEB7A0970FB6B8
:10323000F894DEBF0FBECDBF0E94CE1880934C0421
:103240000E944E0DFE0133968EE1DF011D928A959C
:10325000E9F780EA898380914C040E94E00D8A831B
:10326000CE0101960E94C605A0960FB6F894DEBF67
:103270000FBECDBFDF91CF91089580914C04982F60
:103280009670963019F488600C941219877FFCCFE1
:1032900021E030E001C0220F8A95EAF72095809165
:1032A0004C0482230C94121990910F02809589236B
:1032B00080930F02282F277091F4282F082E000CDE
:1032C000330B9217130659F090911B0292FD07C021
:1032D0008595859585950E94481910920F0208954D
:1032E000CF93C0911B02C2FB992790F9981799F0D0
:1032F00080FBC2F9C0931B0260911A0284E090E047
:103300000E9413346C2F82E290E00E94133482E01A
:10331000CF910C945419CF91089521E030E001C071
:10332000220F8A95EAF780914C04822B0C94121993
:10333000809131038695815009F48AE261E00C9412
:1033400043188091310386958F5F8B3208F081E0BE
:1033500061E00C9443189091310390FF07C096955B
:10336000981720F0961710F40C94A11961E00C94B2
:103370004318E1E3F3E083E0808311828FEF8283DF
:103380008383148260817181828193810C943817C8
:1033900069EE7EEF90E080E00E94313460E082E0F0
:1033A00090E00E94133460E083E090E00E941334C8
:1033B0001092140260E084E090E00E94133460E018
:1033C00082E290E00E94133460E085E090E00E9489
:1033D000133460E086E090E00E9413346FEF87E0E2
:1033E00090E00E94133440E050E0BA0188E090E0A1
:1033F0000E94253460E08DE090E00E94133440E0AC
:1034000050E0BA0188E190E00E94253460E087E155
:1034100090E00E94133440E050E0BA018CE190E06B
:103420000E94253470E060E080E290E00E94313438
:1034300040E050E0BA0188E190E00E94253480E04D
:103440000E9472130E948A1340E050E0BA018FE09C
:1034500090E00E94253440E050E0BA0183E190E022
:103460000C94253410921202E5ECF1E086E0DF01C5
:103470001D928A95E9F70C944E0D90E080E00E9431
:103480000D34893E9E4F11F40C94E71280E00895AC
:10349000EF92FF920F931F93CF93DF937C01162F30
:1034A000D42FC22F0E945C0987E0E822FF2421E08C
:1034B00030E0C90102C0880F991FEA94E2F77C014D
:1034C0000E94800D0E94970C4D2F50E08FE99FE0E5
:1034D0000197F1F700C0000041505109B9F7D0E061
:1034E000112339F189EF0E944C0A0E946A098FE981
:1034F0009FE00197F1F700C000002197C1F789EF25
:103500000E9491090E946A0910E08FE99FE00197EB
:10351000F1F700C0000001501109B9F78E2D0E948B
:10352000790DDF91CF911F910F91FF90EF900C9447
:10353000970C8AEF0E944C0A0E946A098FE99FE06B
:103540000197F1F700C000002197C1F78AEF0E94B0
:1035500091090E946A0910E08FE99FE00197F1F755
:1035600000C0000001501109B9F7D8CF0F9385337F
:103570002FE5920709F468C108F07DC0893C2CE56D
:10358000920709F40BC150F5843C2CE5920709F42D
:10359000F6C090F4823C2CE5920709F4EAC008F0EA
:1035A000EBC09C012051304580512830310508F492
:1035B0001DC181E00F910895863C2CE5920709F426
:1035C000E7C008F4E2C0873C2CE5920709F4E3C0A9
:1035D000883C9C4571F70E94F717C9C080332FE5DE
:1035E000920790F482312FE5920708F0DDC08B3C02
:1035F0002CE5920709F4C6C008F4D3C08C3C9C4566
:10360000C1F60E942118B3C082332FE5920709F456
:103610000AC158F480332FE5920709F40CC18133B5
:103620009F4539F621E041E004C183332FE592073D
:1036300009F4FDC084339F4509F0BBCF84E00E94AC
:10364000800D8FED9EE20197F1F700C0000089E642
:1036500090E00E9447108FED9EE20197F1F700C0C5
:10366000000084E00E94790D8FED9EE20197F1F752
:1036700000C000007CC081352FE5920709F4BDC071
:10368000D0F582342FE5920709F49EC0C8F4873341
:103690002FE5920709F4D5C008F4D0C080342FE597
:1036A000920709F485C081349F4509F082CF03E079
:1036B00023E043E060E080EE90E00E94481A57C0AB
:1036C00084342FE5920709F48BC008F476C0853462
:1036D0002FE5920709F47DC080359F4509F069CF39
:1036E00080914C040E94E00D873008F47EC081E098
:1036F0000E9412193CC0823A2FE5920709F487C054
:10370000D8F48A352FE5920770F485352FE59207B6
:1037100070F582359F4509F04CCF20E040E080E015
:103720000E943E1124C0813A9F4509F042CF82E3B6
:1037300090E00E9452081BC0853A2FE5920709F4D9
:103740006CC060F4833A2FE5920709F463C0843AB1
:103750009F4509F02ECF87EE9FEFEBCF863A2FE5FE
:10376000920709F45DC08037904609F022CF80E0CF
:1037700021CF0E948518FBCF0E94A119F8CF0E948B
:103780009819F5CF0E943218F2CF0E941818EFCF87
:103790000E940F18ECCF0E940318E9CF0E94EB178C
:1037A000E6CF0E94DF17E3CF82510E94DC11DFCF0A
:1037B00003E023E043E061E07ECF05E025E048E25E
:1037C00060E082EE90E079CF05E025E048E261E03C
:1037D000F8CF05E025E045E060E081EE90E06DCFB8
:1037E00005E025E045E061E0F8CF8F5F91E001C0A2
:1037F000990F8A95EAF7892F7BCF80914C040E941C
:10380000E00D811102C080E873CF8150EFCF8EECC4
:103810009FEF8FCF89E190E08CCF84E690E089CF55
:103820008CE99FEF86CF20E040E081E079CF20E077
:1038300040E082E075CF21E041E0F7CF22E042E0B6
:10384000F4CF22E042E0F5CF84E00E94800D8FEDBE
:103850009EE20197F1F700C0000088E690E0F9CE03
:103860009F92AF92BF92CF92DF92EF92FF920F930F
:103870001F93CF93DF9300D000D0CDB7DEB719826E
:103880001A821B821C8203E611E089E6E82E81E0A1
:10389000F82E99249394CC24C394D12C2DE6A22EF7
:1038A00021E0B22ED8018D918D018F3F09F444C0E3
:1038B000F894E82FE295EF70F0E021A18F70A60157
:1038C00002C0440F551F8A95E2F7CA01922F982B28
:1038D00091A392A18095892382A3789400C069E680
:1038E00071E0FE013196492D4095DB019D91BD01AE
:1038F00080819F3F09F464C0292F22952F7030E00A
:10390000D90190962C9130E09F7002C03595279593
:103910009A95E2F720FD54C0892980833196A61636
:10392000B70619F7F801319780818F3F11F00E9497
:10393000A80AB0EABA95F1F7990CE016F10609F079
:10394000B1CF44E050E0BE016F5F7F4F8CE192E069
:103950000E94F23311E0009709F410E0892B91F1F5
:1039600089819A81AB81BC8180931C0290931D0256
:10397000A0931E02B0931F0281E0809317020E9461
:10398000460890931602809315028091150290913B
:1039900016020E9437080597C8F080911C02809398
:1039A000B20280911D028093B30280911E02809327
:1039B000B40280911F028093B5021092170206C0D4
:1039C0008423ABCF809117028111DFCF8091080152
:1039D000811115C080911802909119029C01205FFD
:1039E0003F452F37310558F060E00E94B61A882312
:1039F00031F080911802909119020E944710812F96
:103A00000F900F900F900F90DF91CF911F910F911A
:103A1000FF90EF90DF90CF90BF90AF909F90089570
:103A20000F931F93CF93DF93062F142F0E946312DF
:103A3000EC01C3358FE5D807A1F4402F612F81E059
:103A40000E94220E8FE19EE40197F1F700C0000072
:103A5000402F612F80E0DF91CF911F910F910C9447
:103A6000220E60E0CE010E94B61A882339F0CE0102
:103A7000DF91CF911F910F910C944710DF91CF915F
:103A80001F910F9108950F931F93CF93DF938B0195
:103A9000EA01FC018281882359F00E944608909334
:103AA000CC018093CB01DF91CF911F910F910895AD
:103AB0008091CB019091CC010E943708883C910500
:103AC00098F4C801805F9F458F37910560F360E0EF
:103AD000C8010E94B61A882331F3C801DF91CF9143
:103AE0001F910F910C944710CE01805F9F458F3737
:103AF0009105C8F260E0CE010E94B61A882399F2BF
:103B0000CE01ECCF8F929F92AF92BF92CF92DF9275
:103B1000EF92FF920F931F93CF93DF9300D000D0CB
:103B20000F92CDB7DEB77C01FC0183819481892B94
:103B300031F08081918189238F3F09F04EC50F902C
:103B40000F900F900F900F90DF91CF911F910F91D9
:103B5000FF90EF90DF90CF90BF90AF909F908F90AD
:103B600008950E949612182F682F89819A810E94C9
:103B7000200D69817A81812F0E9489128C01F701C1
:103B8000D280DD2009F41FC582519F454E9708F071
:103B9000DCC48EEE800F0E94DC1180910F028770D2
:103BA00071F2F7018281882351F280911B0282FD1C
:103BB000C6CF82E00F900F900F900F900F90DF9183
:103BC000CF911F910F91FF90EF90DF90CF90BF901A
:103BD000AF909F908F900C94541981E00E948D19A2
:103BE0000E943D19DACF81E00E944819F9CF82E0A6
:103BF000F5CF03359FE5190709F4CEC008F0C2C020
:103C00000035FFE51F0708F4C1C4C7CF09352FE50C
:103C1000120709F482C0E0F407358FE5180709F4AC
:103C20006CC008F443C0F7014081618187E00E94C5
:103C300063129093190280931802DD2009F4ADCF2E
:103C400080910801811166C081E080930801A5CFB1
:103C5000073AEFE51E07C8F4013AFFE51F0708F031
:103C60009CCF003A2FE5120709F090C4DD2009F43B
:103C70009AC080913C03811190CF81E080933C03F6
:103C800090E080E00E94520888CF003730E61307AA
:103C900009F07CC4E1E2F2E020EA32E080E48193C2
:103CA0002E173F07E1F78093A00277CFF70100813D
:103CB0001181402F612F86E00E9463126C01402F1A
:103CC000612F87E00E946312EFE3FFE13197F1F784
:103CD00000C00000AC01B601C7010E94431D5DCFCA
:103CE000F70100811181402F612F84E00E9463124F
:103CF0006C01402F612F85E0E5CFF70140816181A4
:103D000087E00E9463129093190280931802DD20CD
:103D100009F49ACF1092080140CFF70140816181E8
:103D200087E00E9463128C0190931902809318021D
:103D3000DD20E9F00E9446089093CC018093CB01EE
:103D400080910801882309F47FCFC801805F9F45D7
:103D50008F37910508F421CF60E0C8010E94B61AA0
:103D6000882309F41ACFC8010E94471016CF80910A
:103D7000CB019091CC010E943708883C910508F452
:103D80000CCFC8CFF7014081618186E0D11001C01E
:103D900087E00E94101D01CFF701418160818D2DC8
:103DA0000E94220EFACE81E080933C0390E080E0F6
:103DB0000E94520810923C0363CF053FECE51E07BA
:103DC00009F45EC008F458C0063F2CE5120709F458
:103DD0005BC0DD2009F412C410924B0403303DE5B2
:103DE000130708F058C00A3F8CE5180730F4C801E3
:103DF00082509C45449708F053C00E940013909352
:103E00001B0280931A020031ECE51E0709F418C169
:103E100008F095C008302CE5120709F4FBC008F043
:103E200067C004308CE5180709F4E6C008F04DC0FF
:103E30000230ECE51E0709F4D9C080911A028260B5
:103E400003301C4509F4D5C060911A0210911B0281
:103E500084E090E00E941334612F82E290E00E949F
:103E600013340E94321A99CE27E245EE65EEA7C3BD
:103E700026E241EE60EEA3C327E245EE64EE9FC367
:103E800026E241EE62EE9BC327E245EE66EE97C363
:103E900028E241E0EBCF01369DE5190709F4ADCFEB
:103EA0008091120206312CE5120709F0B2C38A7A1A
:103EB00091E009F490E09093CD018111E6C089E290
:103EC0000E94D40C0E94970C68CE80911A028061E7
:103ED00006302CE5120709F48CC080911A02886024
:103EE00007301C4508F485C080911A02806281C0A9
:103EF0000C308CE5180709F497C070F480911A0211
:103F00008C600A30ECE51E0709F473C008F486C023
:103F100080911A028E7F6DC080911A02877F0E30C9
:103F20002CE5120709F465C080911A028B7F0F30CF
:103F30001C4508F45EC080911A028F7E5AC00C3F67
:103F40008CE5180709F474C068F50431ECE51E0728
:103F500009F48AC080F402312CE5120709F474C018
:103F600080911A028F7B03311C4508F442C0809176
:103F70001A02837F3EC00A3F8CE5180709F440C04F
:103F800008F044C005311C4509F05ECF80911A024B
:103F900082FB992790F921E0922790FB82F990FB10
:103FA00083F927C00115FDE51F0709F453C060F42C
:103FB00080911B0283600E3F3CE5130721F1E0F185
:103FC00080911B028C7F1FC002309DE5190709F408
:103FD0005AC008F452C001361D4509F035CF909102
:103FE0001A02892F8F7E94FF806103C080911A028C
:103FF000816080931A0228CF80911A028460F9CFE1
:1040000080911B02816080931B021ECF80911B0256
:104010008260F9CF80911A028064EBCF0E94321A3D
:1040200080911A028068E5CF80911A028D7FE1CFDE
:1040300080911B028E7FE7CF80911B028D7FE3CFA3
:1040400080911A028F7DD5CF0E94321A80911A0278
:104050008F77CFCF80911B02982F909591708E7F94
:10406000892B90FB81F9CFCF0E94321A90911A02CE
:10407000892F97FB87F98058BCCF61E08EE090E0F4
:104080000E941334E1CE60E0F9CF85E319CF85E3D8
:10409000BDC20E94851881CD48E959E161EA79E104
:1040A0000E94B1087ACD41EA59E168E979E1F8CF97
:1040B00048E158E16FE078E1F3CF47EF57E163E083
:1040C00078E1EECF4FED57E16BEE77E1E9CF4BEEC4
:1040D00057E16FED77E1E4CF42E358E161E278E147
:1040E000DFCF61E081E00E94431857CD65E082E0B8
:1040F0000E94AB1952CD68E086E0FACF64E18FE010
:10410000F7CF67E185E1F4CF62E289E1F1CF61E0C9
:1041100083E2E9CF0B35FDE51F0701F10C351D45A5
:1041200009F0A2C280911B0282FB882780F991E0EE
:1041300089270E94701998C20E94321A3FEF84E3C7
:104140009CE0315080409040E1F700C000000E94A8
:104150000B0F0E94C81921CD81E0EBCF80E0E9CFA1
:10416000C8010E94F70CD82E8EC2212F2F70C22EAC
:10417000107F19F0C29490EFC922DD20B9F0CC2055
:1041800069F080E2800F883010F0811009C08091C2
:104190001202C82AC09212020E94970C802F4AC0B5
:1041A00080911102C82AC0921102F6CF802F0E947E
:1041B0008A0DCC2009F440C0005E083010F0811058
:1041C00004C08C2D0E94900C06C0C09480911102F6
:1041D000C822C09211020E94970C2EC0312F3F704E
:1041E000C32E107F103219F0C29480EFC8228820AD
:1041F00089F081E0881609F478C0DD2009F482C0D6
:10420000BB2009F478C0F701858180FFC7CF8F708C
:10421000858371C020911B0222FF44C0DD20E1F1A3
:10422000CC2039F080911202C82AC09212020E945A
:10423000970C80E00E942F0FE92DE850FF0B349778
:1042400010F40E94A508AA2009F479CC80910F02ED
:1042500080FD75CCF70112828595859585950E9424
:104260008D19C7010E94821D80910F028595859549
:1042700085950F900F900F900F900F90DF91CF9139
:104280001F910F91FF90EF90DF90CF90BF90AF9074
:104290009F908F900C94481980E00E948A0DCC204A
:1042A00059F28FCFDD20A1F0909113028C2D892B34
:1042B000B11003C00E94800DBFCFE1E0BE12FACF63
:1042C00022FDBACF891709F4B7CF80931302B4CF78
:1042D000B11006C00E948A0C8C2D0E94790DACCFC3
:1042E000F1E0BF1609F4A8CFF5CFDD2031F025E0CD
:1042F0002B1508F4A1CF8C2DDDCF34E03B1508F44D
:104300009BCFEACFBB2041F3F9E38F1217C12FEF08
:1043100037EE83E0215030408040E1F700C00000DC
:104320000DC1812F86958695837061F0813009F0EB
:1043300083CFC8019370D11002C090E080E00E944A
:1043400079087ACFC8019370D11002C090E080E064
:104350000E948F0871CF802FDD2029F00E944C0A27
:104360000E946A0969CF0E949109FACF812F837058
:1043700089F5D11061CF402F429546954770440F83
:10438000440F802F8F70042E01C0880F0A94EAF723
:10439000202F207104FF07C02FE030E001C0220F62
:1043A0004A95EAF72095169516951370123069F024
:1043B00050F430911402113029F0822B83230E9493
:1043C000600D3ACF832B822BFACF282B80911402D9
:1043D0008227F5CF8695DD2011F0812F817088230B
:1043E00009F42ACF402F429546954770440F440F59
:1043F000802F8F70042E01C0880F0A94EAF7202FB7
:10440000207104FF07C02FE030E001C0220F4A9561
:10441000EAF72095169516951370123069F050F44E
:1044200030914C04113029F0822B83230E94121901
:1044300003CF832B822BFACF282B80914C04822729
:10444000F5CF1F70DD2029F0812F0E948D19802F5C
:1044500031CF802F0E94790D812F0E944819ECCE18
:10446000802F92EF8916A9F1981570F0E0EF8E1663
:10447000D1F0F1EF8F1691F0DD2009F45AC0B110A0
:104480008DCE812F8F7129C023EF821649F134EF31
:104490008312F2CF80911B0282FF2DC0812F8F717A
:1044A000DD20D9F21AC0DD2079F084E08B1508F404
:1044B000C3CE1F7181E090E001C0880F1A95EAF722
:1044C00090914C048927B2CF95E09B1508F4B4CEA7
:1044D000F0CF812F8F71D110C0CF0E948D19ACCE3B
:1044E00080E0DD2009F4A2CF1F7181E001C0880FB8
:1044F0001A95EAF79BCFDD2089F01F71812F0E946A
:104500008D1980911B0282FD07C0E8E01E9FC0014B
:104510001124836080930F02812FDFCF81E00E94FE
:104520005419F1E0FB1508F087CE82E00E9454197F
:1045300083CEBB2039F0893309F4E9CE802F0E9465
:104540008A0D7ACE812F8F7188CF0031FFE51F074A
:1045500009F443CB01312FE5120709F448CB0535A7
:10456000FFE51F0709F4BCCB08F050CB06343FE54C
:10457000130708F03ECB00348FE5180708F00DCB89
:10458000C80180539F45089708F407CB033FFCE51B
:104590001F0709F46DCC08F010CC083D3CE513076B
:1045A00009F462CC093D8CE5180709F471CC073D8C
:1045B0009CE5190709F00DCC26E241EE61EEC7013A
:1045C0000E94E30FEACA80319F4509F40CCB013108
:1045D0008FE5180721F682E007CB85E0DE01119612
:1045E00001900D928A95E1F7F701228189819A81E4
:1045F0002111B7CA0E94F70C182FBBCA06311C45FF
:1046000099F58091CD01811142CD89E20E94C70CBC
:1046100059CC82720C3C2CE5120709F45DCD08F0F0
:104620009EC0063C9CE5190709F442CD08F073C012
:10463000033CFCE51F0709F42FCD08F05DC0023CE8
:104640003CE5130709F425CD0A353DE5130709F4C8
:1046500083CD08F05FCD01159CE5190709F46CCDF9
:104660000E3D1C4509F475CDF70182810081118151
:10467000882309F475CDC8010E949612D82E682FA0
:10468000C8010E94200DB8018D2D0E9489120E9440
:10469000020B8C01882EF701D280B580B2943FE0E6
:1046A000B32280910F028770C1F0AD2CDD20B1F0F4
:1046B000812F807F803421F080E2800F883068F085
:1046C00080911B0282FD09C082E00E9454198091F2
:1046D0000F028770AA24A3948111A12C912E929489
:1046E0002FE09222FBE0F91508F4A6CDE92DF0E0C9
:1046F000E853FB4C0C946433043C9CE5190709F423
:10470000D2CC4FE058E168E178E1053CECE51E07CA
:1047100009F4C6CC99CF093CFCE51F0709F4D2CCBB
:1047200078F4073C3CE5130709F4C7CC43E058E1B3
:1047300067EF77E1083C9CE5190709F4B1CC84CF19
:104740000A3CECE51E0709F4C2CC41E258E162E301
:1047500078E10B3CFCE51F0709F4A2CC75CF013DC5
:104760002CE5120709F4CACCA0F40E3C8CE518071E
:1047700009F4BCCC08F4B5CC0F3CECE51E0709F4F9
:10478000BACC6EE089E0003DFCE51F0709F4B0CC2F
:104790005BCF043D2CE5120709F4B6CC68F4023D6A
:1047A0008CE5180709F4ADCC61E088E1033D9CE598
:1047B000190709F498CC48CF053DECE51E0709F42C
:1047C000A6CC6AE285E20D35100709F491CC3CCF06
:1047D0001F93CF93DF938091DC01807FA9F48091B8
:1047E000D901882389F080910E02D091DD0160917A
:1047F000D7017091D801A091DA01B091DB01C62FE9
:10480000C72316E0D81304C0DF91CF911F910895FC
:1048100090E0109711F0CF3F19F401968770F2CF16
:10482000189F9001199F300D1124F901E252FE4F9B
:1048300041814713F2CF40814613EFCF42814111AE
:10484000ECCF438154814A1B5B0B483C510528F750
:104850008091DC018F7080618093DC01F901ED5162
:10486000FE4F80818F708061808387ED91E00E9490
:10487000821DDF91CF911F910C94ED0CAF92BF92EE
:10488000CF92DF92EF92FF920F931F93CF93DF931C
:10489000CDB7DEB761970FB6F894DEBF0FBECDBFC0
:1048A0008C0185E0F801DE011D9601900D928A953C
:1048B000E1F7F801E28087EDA82E81E0B82E609143
:1048C000DA017091DB016115710509F432C1909133
:1048D000D7014091D801892F84238F3F09F429C142
:1048E00020813181C380D480F090D901F601E61B8C
:1048F000F70BFF2009F4E8C08091DC01582F507FAE
:10490000E83CF10508F0ABC0511177C0FE2C431311
:1049100021C092131FC0E1101DC08F708061809371
:10492000DC01C5010E94821D8091DC01F8018583B4
:104930008F2D61960FB6F894DEBF0FBECDBFDF910D
:10494000CF911F910F91FF90EF90DF90CF90BF908C
:10495000AF900895CD2829F0822F83238F3F09F04F
:1049600003C180E0F82FF170DF2E80FF3CC0809102
:104970000E024091DD0156E0841315C02D873E875D
:104980008D859E850E94B412292F22952F7022308A
:10499000F0F0243018F59F70F1F0F8019581907FC8
:1049A000D1F4D12C1EC090E0589FF001599FF00D1A
:1049B0001124E252FE4F6181361306C06081261336
:1049C00003C06281E6120FC001968770D5CF9F7039
:1049D00011F0882331F3805E883018F3C8010E94FB
:1049E000821DFD2CA5CFEE2009F4A2CF8091DC0121
:1049F00081608093DC01F12C9BCF431306C092139E
:104A000004C0F801EE2009F479C0C8010E94C01268
:104A1000882309F1EE20F9F08091DC01803270F0FA
:104A20002091D7013091D80138872F831986DB86F2
:104A3000CA868C87CE0107960E94821D86E0F80107
:104A4000A7EDB1E001900D928A95E1F70E94E8236D
:104A5000FF24F3946DCFC8010E94821DF9CF51113C
:104A60000AC087ED91E00E94821D86E0F501119257
:104A70008A95E9F7C0CF43130FC092130DC0E11020
:104A80000BC0F8018583C8010E94821D86E0F501F4
:104A900011928A95E9F74CCFC8010E94C012882371
:104AA000D1F2EE20C1F28091DC01803238F2209107
:104AB000D7013091D8013A8329831B82DD82CC82D1
:104AC0008E83CE010196B8CFE83CF105F8F6FE2CB6
:104AD000EE2009F243131FC092131DC08091DC0128
:104AE00080FD10C0982F907F69F0F8018583903F7A
:104AF00031F0982F907F905F8F70892B8583C8014C
:104B00000E94821D86E0F801A7EDB1E001900D92B0
:104B10008A95E1F70DCFC8010E94C01281118ECF96
:104B20008091DC0181608093DC01C8010E94821DBC
:104B3000FFCEEE2009F48FCFC8010E94C012F82EDC
:104B4000882309F488CF86E0F801A7EDB1E0019051
:104B50000D928A95E1F78091D7019091D8010E943A
:104B6000B4120E94E823E4CE81E08E25FBCE1F9391
:104B7000CF93DF93CDB7DEB767970FB6F894DEBF5C
:104B80000FBECDBF4B8B5C8B6D8B7E8B8F8B611182
:104B9000109211021A8A198A85E0FE017396DE01CD
:104BA0001D9601900D928A95E1F786E0FE013D96F3
:104BB000DE01179601900D928A95E1F7CE010796D6
:104BC0000E943E24882389F016E080910E02909185
:104BD000DD01891349C067960FB6F894DEBF0FBE9A
:104BE000CDBFDF91CF911F91089586E0FE013796EA
:104BF000DE01119601900D928A95E1F78A859B85D9
:104C0000892B11F38F81988589238F3FE9F22091B9
:104C1000DD0130E0C90101968770992740910E02AD
:104C20004817190671F40E94321A1092DD01109291
:104C30000E0286E0E7EDF1E0DF011D928A95E9F7CB
:104C4000C3CF96E0929FD001939FB00D1124A25242
:104C5000BE4FFE01319601900D929A95E1F7809337
:104C6000DD010E94ED0CB0CF819FC0011124825262
:104C70009E4F0E943E24882309F4ADCF80910E02FE
:104C800090E001968770992780930E029ECFFF9245
:104C90000F931F93CF93DF93062F142FF22E809143
:104CA0004C040E94E00D412F602F0E946312EC0122
:104CB000019731F4412F602F80E00E946312EC01D4
:104CC000C3358FE5D807A9F4402F612F81E00E94FA
:104CD000220E8FE19EE40197F1F700C00000402F03
:104CE000612F80E0DF91CF911F910F91FF900C9485
:104CF000220ECE01805F9F458F37910548F52C2FFE
:104D0000205FE22FF0E0EF5DFD4F8081FF20C9F0D2
:104D10008F5F808380818F3710F08FE780830081E1
:104D20000F77E0915C03F0915D0340EB63E070E08E
:104D30008CE593E00995DF91CF911F910F91FF9042
:104D40000895811102C081E0808380818150E1CF8C
:104D50006F2DCE010E94B61A882369F3CE01DF9130
:104D6000CF911F910F91FF900C9447101F920F92BB
:104D70000FB60F9211240F931F932F933F934F93CE
:104D80005F936F937F938F939F93AF93BF93EF93B3
:104D9000FF93CF93DF93CDB7DEB7AA97DEBFCDBF2A
:104DA0001091E9001F709091EC00892F817090FDA7
:104DB00080E8182B1092E9008091F000877F8093A3
:104DC000F000789484E593E02091F100FC012193B8
:104DD000CF01F3E08C359F07B9F7809155038330FD
:104DE00009F470C0B8F4813009F447C0823009F486
:104DF000B1C08091E80083FF8FC2809154039091ED
:104E000055039A3008F088C2E92FF0E0EC52FB4CD1
:104E10000C9464338A3009F48CC08B3009F46FC071
:104E2000893039F780915403813219F78091580302
:104E300090915903892BE9F68091E800877F809350
:104E4000E8008091E80082FF38C09091F3008091E3
:104E5000F200029731F48091F100813011F0863038
:104E600021F48091F100809347038091E8008B77D3
:104E70008093E8000E941806BCCF80915403813AC9
:104E800009F0B7CF8091E800877F8093E800809198
:104E9000580390915903892B61F469E088E493E009
:104EA00070E00E94CA068091E8008B778093E8004A
:104EB000A0CF60E090E080E0F3CF80914D048111BD
:104EC000C0CF97CF80915403813A09F092CF80915F
:104ED000580390915903892B09F08BCF8091E800FA
:104EE000877F8093E8008091E80080FFFCCF80916D
:104EF00031018093F1008091E8008E77B9CF8091E5
:104F00005403813209F075CF809158039091590371
:104F1000892B09F06ECF8091E800877F8093E800AD
:104F20000E94180680915603809331010E94321A24
:104F300060CF80915403813209F05BCF8091E8000B
:104F4000877F8093E8000E94180680915703809322
:104F500046034FCF80915403813A09F04ACF8091A4
:104F6000E800877F8093E8008091E80080FFFCCF15
:104F700080914603BECF803899F0823809F0CCC1C9
:104F8000809158038F70873008F0C6C18093E90084
:104F90008091EB0085FB882780F91092E90006C01C
:104FA0008091510390915203911182609091E80099
:104FB000977F9093E8008093F1001092F100809128
:104FC000E8008E77A5C1882309F493C1823009F0E7
:104FD000A3C180915603811196C1809158038F70AF
:104FE0002FEF280F263008F097C18093E900209119
:104FF000EB0020FF88C1933031F48091EB00806298
:105000008093EB0080C19091EB0090619093EB0056
:1050100021E030E001C0220F8A95EAF72093EA00F0
:105020001092EA008091EB008860EACF811174C190
:10503000009156030F778091E3008078802B809356
:10504000E3008091E800877F8093E8000E941806C3
:105050008091E80080FFFCCF8091E300806880931E
:10506000E30082E0011183E080934D0455C1805834
:10507000823008F051C120915603309157032C3DE6
:1050800083E03807A1F583E08A838AE289834FB7FA
:10509000F894DE01139620E03EE051E2E32FF0E0C9
:1050A00050935700E49120FF03C0E295EF703F5FFB
:1050B000EF708E2F90E0EA30C0F0C7968D939D93ED
:1050C0002F5F243159F74FBF8091E800877F80938D
:1050D000E8006AE270E0CE0101960E94CA06809163
:1050E000E8008B778093E80017C1C096E7CF409126
:1050F000580350915903832F99278330910501F16B
:1051000060F48130910509F471C0029709F004C17F
:1051100086EA90E0E3E6F6E031C08132910509F4D9
:1051200059C08232910509F0F7C04115510509F4C3
:1051300067C04130510509F0EFC0ECE4F5E01EC056
:1051400033272130310509F43DC02115310561F0C7
:105150002230310509F0E0C0EBE1F7E0E4918E2F59
:1051600090E0EBE1F7E007C0EBE4F7E0E4918E2F8D
:1051700090E0EBE4F7E0009709F4CEC02091E8005E
:10518000277F2093E80020915A0330915B03821718
:10519000930708F49C0140E021153105B1F5411158
:1051A00034C08091E80082FD9ACF80914D0488231D
:1051B00009F495CF853009F492CF8091E80083FF00
:1051C000F0CF8DCFE7E3F7E0E4918E2F90E0E7E3B7
:1051D000F7E0D1CF4115510571F04130510509F08B
:1051E0009BC089E090E0EEE8F6E0C8CF82E190E075
:1051F000E9E0F7E0C3CF89E090E0E5E7F6E0BECF75
:1052000085EF90E0EEE6F5E0B9CF80914D0488237C
:1052100009F465CF853009F462CF8091E80083FD01
:105220005ECF8091E80082FDBCCF8091E80080FFD6
:10523000B3CF9091F3008091F2002115310519F060
:105240008830910550F041E0089709F040E08091E6
:10525000E8008E778093E8009FCF44914093F1005F
:105260003196215031090196E8CF803809F054C0B9
:105270008091E800877F8093E800809153038093BA
:10528000F1009DCE811148C000915603023008F014
:1052900043C08091E800877F8093E8000093530328
:1052A0000E941806002311F084E005C08091E300FD
:1052B00087FDFACF81E080934D0442E261EC83E008
:1052C0000E94370642E261EC81E00E94370642E22A
:1052D00060EC82E00E94370642E361E884E00E94CD
:1052E000370642E361E885E00E94370680914D046D
:1052F00013C080915603813079F481E0933009F036
:1053000080E0809352031092E9008091E800877F4B
:105310008093E8000E9418068091E80083FF0AC08D
:105320008091E800877F8093E8008091EB008062A5
:105330008093EB001092E9008091F00088608093E8
:10534000F0001F701093E900AA960FB6F894DEBF24
:105350000FBECDBFDF91CF91FF91EF91BF91AF9184
:105360009F918F917F916F915F914F913F912F917D
:105370001F910F910F900FBE0F901F9018951F92C5
:105380000F920FB60F9211242F933F934F935F9379
:105390006F937F938F939F93AF93BF93EF93FF93FD
:1053A0008091E10082FF09C08091E20082FF05C088
:1053B0008091E1008B7F8093E1008091DA0080FF93
:1053C00024C08091D80080FF20C08091DA008E7FB9
:1053D0008093DA008091D90080FF9DC080E189BD73
:1053E00082E189BD09B400FEFDCF81E080934D04C8
:1053F00080914503811109C00E944C050E946906F5
:105400008091E20084608093E2008091E10080FF5F
:1054100017C08091E20080FF13C08091E2008E7F70
:105420008093E2008091E20080618093E2008091AD
:10543000D80080628093D80019BC85E080934D0429
:105440008091E10084FF2BC08091E20084FF27C09F
:1054500080E189BD82E189BD89B5982F917080FF77
:10546000FBCF8091D8008F7D8093D8008091E100A0
:105470008F7E8093E1008091E2008F7E8093E20036
:105480008091E20081608093E20080915303882341
:1054900009F447C084E080934D0480914D048091CD
:1054A000E10083FF27C08091E20083FF23C0809149
:1054B000E100877F8093E10082E080934D041092A9
:1054C00053038091E1008E7F8093E1008091E200A0
:1054D0008E7F8093E2008091E20080618093E20001
:1054E00042E060E080E00E9437068091F000886032
:1054F0008093F000FF91EF91BF91AF919F918F91B9
:105500007F916F915F914F913F912F910F900FBEBF
:105510000F901F90189519BC10924D0410924503DE
:1055200074CF8091E30087FD93E090934D04B5CF55
:1055300078941F921FB61F9211248F939F93AF935D
:10554000BF9380913E0390913F03A0914003B0919F
:1055500041030196A11DB11D80933E0390933F032B
:10556000A0934003B0934103BF91AF919F918F915E
:105570001F901FBE1F9018951F921FB61F921124D7
:105580008F939F93AF93BF9380913D03811113C07D
:1055900080913E0390913F03A0914003B09141035D
:1055A0004196A11DB11D80933E0390933F03A093AC
:1055B0004003B0934103BF91AF919F918F911F9092
:1055C0001FBE1F901895CDB7DEB7AD970FB6F894F4
:1055D000DEBF0FBECDBF10928103109283031092E5
:1055E000820380EC8093460484E893E0909348041F
:1055F0008093470410924504109244041092610372
:10560000109260031092630310926203109265037C
:10561000109264031092670310926603109269035C
:105620001092680310926B0310926A0310926D033C
:1056300010926C0310926F0310926E03109271031C
:1056400010927003109273031092720310927503FC
:1056500010927403109277031092760310927B03DA
:1056600010927A038CED97E090935D0380935C0336
:1056700081E597E090937D0380937C038DE297E032
:1056800090937903809378038CE297E090935F0383
:1056900080935E0384B7877F84BF0FB6F894A89584
:1056A00080916000886180936000109260000FBE5E
:1056B00080E890E00FB6F8948093610090936100C9
:1056C0000FBE85B7806885BF85B7806885BF86EACD
:1056D0009AE09093C1018093C0010E944C050E9402
:1056E00069068091E20084608093E2007894809162
:1056F0004D048430E1F782E084BD93E095BD9AEFDC
:1057000097BD80936E000E94E712811116C00E941F
:105710008A1364E087E290E00E94373464E088E214
:1057200090E00E94373464E089E290E00E943734D0
:1057300062E08AE290E00E94373403E611E0A9E6D5
:10574000EA2EA1E0FA2ED8018D918D018F3F11F044
:105750000E94A80AE016F106B1F787E60E94A80A9F
:1057600086E60E94A80A86E90E94A80A84EF0E94A1
:10577000A80A84E0E2EBF2E0DF01282F1D922A95CF
:10578000E9F7ECE1F2E0DF011D928A95E9F70E946A
:105790003D1A811102C00E94C81982E090E00E9467
:1057A000FF338093AD020E94001390931B028093FD
:1057B0001A020E94301CBFEFE6E7F1E0B150E04072
:1057C000F040E1F700C000000E94301C8091B2025E
:1057D00080FF08C06FEF7FEF90E080E00E943134DF
:1057E0000E940B0F83E090E00E94FF330E94600D47
:1057F00080914C040E94CE1880912002811133C008
:105800000E943D1A811104C00E94C8190E94B91952
:1058100088E090E00E940734609331037093320374
:1058200080933303909334036E7F71F40E94B9190F
:1058300088E090E00E940734609331037093320354
:1058400080933303909334030E94B7081092CA02E6
:105850008091310380FF04C060E086950E94431868
:1058600081E08093200265E871E0F8EA8F2EF2E093
:105870009F2E2DE731E0E1E8F1E041E050E01191A9
:10588000812F82958F7090E0DC019196FC9091972A
:105890001F70E12E6A0101C0CC0C1A95EAF70C2D9D
:1058A00000950F2191960C93919792961C91929747
:1058B0001C2992961C93D901FD909D010F2D0295F4
:1058C0000F7010E0D8019196BC90BF2DBF70FB2ED9
:1058D0006A0101C0CC0CBA95EAF7DC2CD094DB202D
:1058E000D8019196DC9291979296DC909297DC2861
:1058F0009296DC92DC0190968C9190E002C0959596
:105900008795EA94E2F78170D80190960C9110E0A7
:1059100002C015950795FA94E2F790E000FD92E039
:10592000892BD4018D934D016E177F0709F0A7CF06
:1059300082EA91E09093CD028093CC02E1E2F2E022
:1059400080E48193B2E0E03AFB07D9F78093A002AC
:1059500089E091E090933B0380933A0310923C03DB
:1059600082EB92E0E4E0E80FEDA780914D04E0E4E3
:10597000FE2E00E112E1853009F4BDC20E94301C08
:10598000882359F08FB7F89440913E0350913F031C
:1059900060914003709141038FBFA2EBB2E0EEEA49
:1059A000F2E010E000E0302F8D919191981709F40A
:1059B000B1C2292F282790E0FF24F394422F4F21D2
:1059C00009F4A3C299A33AA38F2191E009F490E0CE
:1059D0009BA30E9446088160782F9DA38CA349A1B8
:1059E0005AA16BA18DA10E94B725F801E255FD4F88
:1059F0008081F826F0828091CA028823D1F18091BB
:105A0000C902E0913103E695E81BE093C5028230BC
:105A100009F097C2F0E0ED53FE4FE4910E2F10E035
:105A200074E2E72E77E1F72E8091C602882361F0B9
:105A30001092C6020E9446089093C4028093C3024B
:105A40001092C8021092C7020E944608E091C30259
:105A5000F091C4028E1B9F0B8F3F9F4750F4E00FC5
:105A6000F11FF093C402E093C30283EC92E0F701CC
:105A7000099564EA262E62E0362E00EA12E07101F2
:105A80007DE7472E71E0572E21E831E03CA72BA798
:105A9000E8EA8E2EE2E09E2EF7E2CF2ED12C712C7A
:105AA000D401BD904D01BB0CBB0CEBA5FCA5219115
:105AB000FCA7EBA7E22FE295EF70F0E080A190E069
:105AC0002F7002C0959587952A95E2F781709927E6
:105AD000D2014D912D01E42FE295EF70F0E020A16D
